:020000041C00DE
:1040000080B500F0DDF903F0ABF901F001FE0A48DC
:104010000A4901600A480B4901600B480B490160DD
:104020000B480C4901600C480C4901600CA0BDE82C
:10403000804003F06BBA00BF94444120C145001C8E
:10404000244441209D40001C98444120D959001C23
:10405000804441207D72001C2C4441207940001C8A
:10406000506174636820686F6F6B20696E73746150
:104070006C6C2E2E0A00000080B5012803D020B9F8
:104080000549002001E00349012003F044FA002023
:1040900080BD00BF9545001CE143001C032804BF00
:1040A000094870473C2804BF0A487047172804BFD6
:1040B00007487047182804BF044870470B2814BFEE
:1040C00000200548704700BF507A001C047B001C8C
:1040D000847A001C787A001C5C7A001C80B502F09F
:1040E0004DF903F01DFA0948016841F4807101603F
:1040F000016841F400710160016841F48061016070
:10410000016841F40061016080BD00BF00040950F6
:1041100080B50D4951F8200098B1D0F8FC0080B16D
:10412000C079402807D2782101EA5000094921FAD4
:1041300000F0C0B280BD0548054940F2F52203F009
:10414000F4F9002080BD00BF98474120907A001C00
:10415000C07A001C0000010170B5194A02EB800210
:10416000D2F81C5155B3174A95F8333010FB0210A2
:10417000A64995F83120B1F84010033222F003022D
:10418000401A95F8301002FB1100D91D21F00301EF
:10419000043890FBF1F0C1B2490051FA80F603F007
:1041A000C9F90446E86A00EB860105F1140003F042
:1041B000C6F92046BDE8704003F0C6B970BD00BF27
:1041C000444B412090F7FFFF80B503F0C2F9C0B225
:1041D00080BD00002DE9FE4F814603F0ABF980461B
:1041E000684603F0BBF91F4EDDF808A07068AAEB23
:1041F0000005B5F1FF3F05DC1BA01CA14FF4A9721F
:1042000003F093F91A489DE80E00D6F810B096E82E
:10421000905080E89E50C0F81CB04FF47A70154959
:104220003289B5FBF0F000FB015111448AB23181B3
:10423000B2F57A7F22BFA1F57A7131810130F16840
:10424000CA43904202D9327C013232740844C6F823
:1042500004A0F0603169C9E90001404603F074F937
:10426000BDE8FE8FA04C412041535300612E6300F6
:104270000040412018FCFFFFB0B5584CA07850B169
:104280002078052809D30025084621F8065C03F0AC
:104290006AF9012003E00020B0BD451C0020257014
:1042A000B0BD00BFBCB54FF685400C46834214D06C
:1042B0004FF68640834266D04FF68A4083421ED135
:1042C0004FF4885000214FF68A42012303F050F941
:1042D0000546207840B3122051E04FF48850002169
:1042E0004FF685420123002503F042F921783B4A2D
:1042F00002EB81012268C1F80120057041E02649E6
:104300000020B0F5847F3ED00D5A08309D42F8D190
:10431000084450F804CCBCF1000F34D018462146B4
:1043200002B0BDE8B04060476078022815D001288F
:104330001AD00028CFD10620144C0DF107018DF8BA
:1043400007001348224603680120984788B11148A6
:1043500081880068A18020600BE0E0880B4988809C
:10436000D4F80200086004E00848017881F05501A3
:104370000170064800F1190103F0FFF800202870D1
:10438000284603F0F0F80020BCBD00BFD85C4120F7
:10439000DC474120B0A20500C4A3050041F205118D
:1043A000054A41F209138842044918BF0022984285
:1043B00018BF114608467047A542001C7942001CF0
:1043C000064800210022042A05D000EB82030132B6
:1043D000C3F80110F7E70021017070472840412021
:1043E00080B503F0CFF80120BDE8804003F0CFB8DE
:1043F000064A00EB4000D28C02EB4010044A835A7C
:1044000023F0FF0319448152704700BFAC5741208D
:104410001480412004493028087004BF04487047C4
:104420000249022203F0B8B82842412014B5050021
:10443000707A001C80B50A464FF4885000210A2388
:1044400003F096F80C2101710449C0F806100449E4
:10445000016003F088F8002080BD00BF4C0A6402B0
:10446000000C0002F8B510460C4603F09AF8192823
:1044700016D8012101FA00F01449084210D0271D76
:1044800003F058F80546607800F00F00461E3988A2
:10449000F0B203F08BF8284603F056F80020F8BD80
:1044A00034F8041F14F8030C00F00F00461EF5B298
:1044B000284603F080F80146284603F081F80028DA
:1044C000ECD003F037F805462746E0E72100C003AB
:1044D00070B540F6FE708D0B14460E0201EA000323
:1044E000B5FA85F200200A2B38BF0120520902409C
:1044F0004FF0FF001CBF301DFB220126B6EB913FA1
:104500000AD02DB9802B03D140F2FD32012006E004
:1045100081B2FF2903D104E040F2FD320220A24221
:1045200001D2002070BD4FF0FF3151FA80F1022915
:1045300002D203F04AF804E0C0B2042805D103F027
:1045400049F840B10D49084470BD0DA00DA140F2DD
:10455000091202F0EAFF41F2021000211A2201239F
:10456000012503F005F8057002F0FDFF204601214A
:1045700003F035F8064981F8565070BD008041209F
:10458000415353006863695F70617463682E630010
:104590001859412010B5084C206803F025F830B1B7
:1045A00006480168012088470020206010BDBDE852
:1045B000104003F01EB800BF146541203044412074
:1045C000C9B2062909D8DFE801F0040608080A087C
:1045D0000C0001F0B5BA00F031BA0020704700F0CD
:1045E00079BEFFF7DBBE0000F8B507460848154660
:1045F0000E461C46294602684FF4C4609047384670
:1046000031462A46234602F0F9FF0020F8BD00BFDC
:104610005044412010B50C881CB1BDE8104002F098
:10462000F2BF002010BD0000F8B50446D748458809
:1046300025F0FF00B0F5807F29D1D5480068C07F04
:1046400004282ED102F076FF21780746002002F0E0
:10465000DFFF0646384602F077FF16B3F5482278AA
:104660006168304402F0D9FF48F2010000220623BD
:1046700080EA052081B241F2071002F079FF21782B
:10468000868005808170BDE8F84002F0CBBFEA4A21
:10469000284621464FF4607301B0BDE8F04002F0B7
:1046A000C6BFF8BD2DE9F04385B004464148005D22
:1046B000163804287AD3A2480D46012150F8246008
:1046C00000204F2814D006EBD00200F0060392F829
:1046D0003C22DA4002F00302032A07D1C20800F0AC
:1046E0000707AB5C01FA07F7BB43AB540130E8E7BF
:1046F000284602F0A1FF06F50A7829460A2240461C
:1047000002F09FFF002851D096F83C00022813D1F8
:1047100000200DF112010DF11102ADF812008DF81B
:104720001100204602F092FF9DF81100BDF8121012
:10473000063000FB01F705E0204602F08CFF00EB9D
:104740004000470002F08CFF814601A8214602F09C
:104750008CFF642F98BF642709EB47000199084438
:10476000C0F35A07204600F009FA28B120020821B8
:10477000013002F07FFF19E0781C01222B464FF038
:10478000010920F001072046394602F078FF68B998
:10479000404629460A2202F040FF96F8363020466D
:1047A0003946012202F070FF86F84C9205B0BDE850
:1047B000F08300BFD05C41201CB504466048332222
:1047C00050F8210090F8360062F35F008DF8040085
:1047D000C8B201A902F05DFF204602F05FFF20464B
:1047E000112102F060FF1CBDB0B5554D140A55F8FB
:1047F00024401CB1BDE8B04002F05ABF0020B0BD5B
:10480000B0B54F4D140A55F824401CB1BDE8B04076
:1048100002F053BF0020B0BD2DE9F0470746104617
:104820001D4614460E4602F0BCFE052834D13088E1
:10483000284F4FEA142AC55DC15DC11991F8019056
:10484000254951F82A8002F03DFF30886E08324633
:10485000013080B2C35D802000EB1421192002F0EA
:1048600036FF0320B0EB550F1DD03C2E20D07F2EFD
:1048700021D1B9F1010F16D0B9F1110F1BD198F860
:104880004F0228B96C4915A040F2363202F04DFEB5
:10489000002088F84F020EE03846314622462B466B
:1048A00002F01AFF07E02046314602F01AFF02E04C
:1048B000504602F01BFF01F0D7F938B104460079E9
:1048C000611D00F067F8204602F015FF0020BDE8EA
:1048D000F08700BF00804120605C412041535300BD
:1048E000B0B51749100A144651F82050104602F08E
:1048F00058FE19280CD8012101FA00F0114908428C
:1049000001D00020B0BD10F0300F01D00220B0BDAA
:10491000012085F8440095F83C00022803D1204688
:1049200002F0EEFEF2E795F83710204602F0EDFEB9
:104930000028EBD095F83710204602F09BFEE0E708
:10494000605C41200100C00310B50146007800B151
:1049500010BD0E4C1422204602F05FFE0C49086880
:1049600010B1012280F8222049680029F0D0807F10
:104970000028EDD191F85500E072022814BF4FF0E5
:104980001E104FF00A10C4F80E0010BDC44741209D
:10499000784741207CB50C46054602F0BBFEF0B1DD
:1049A000064614212078ADF806107F21B1EB500F98
:1049B00007BF60781E4940081C4900EB400001EB2E
:1049C0008000406888B100900DF106022046214623
:1049D000142302F0A4FE80B1BDF8061007E02846BB
:1049E0002146BDE87C4001F04DB904201421124A53
:1049F00040F29D2302F01BFE7CBDB0880D49BDF83E
:104A000006200844214602F008FE9DF806003146C3
:104A1000B071284602F088FE9DF8062005F180015D
:104A20001720234602F085FE7CBD00BFC0C90500EB
:104A3000E4CC050000804120B57A001CA0F21E6184
:104A4000082909D80E48DFE801F0051313151417DB
:104A5000131319000B48704740F20161884204BFEC
:104A60000A48704741F20711884204BF0A4870475C
:104A70000020704704487047064870470448704754
:104A80001948001CE148001C0148001CE947001CB3
:104A9000E945001C1546001C6544001C70B5044621
:104AA000E84850F8245065B116290AD195F8B100AC
:104AB000032806D195F8B000012802D195F8B90075
:104AC000B0B31E48427A012A0AD1807A884218BFC0
:104AD000002805D1EE4A204640F2933302F0A7FDAC
:104AE0001DB12846002102F029FE204601F0F6FB08
:104AF000204601F093F802F01DFD064695F8F500FA
:104B000030B1002085F8F5004FF4004002F01BFEA4
:104B10000025032D07D8204602F01AFE18B102F036
:104B20001CFE0135F5E7304602F00EFD012070BD98
:104B3000022085F8B000002070BD00BF2940412050
:104B400000F026B810B5CCB2022C07D3D04B1146DA
:104B500020461A4640F2525302F069FDD54850F8FB
:104B6000240008B1002010BDC94A2046002140F2AF
:104B7000575302F0F7FD012010BD00BFCD4951F899
:104B8000200010B190F8AF007047FF20704700BFC1
:104B900070B5014690F8AE0091F8BF20F2B191F8DF
:104BA000BD203D4C02EB4002D3B25B0053FA82F3CE
:104BB0003B4A528D02EB83052544EE881EBBAD882F
:104BC0000DB391F8BB10F1B199002143895A01F05E
:104BD00078011839B1FA81F1490915E0D1F8FC10D2
:104BE00089B10B49096889034FF001010CD500EB2D
:104BF0004002294B43EA4212294BDB8C1A4492882B
:104C000021EAD22100E00121BDE8704001F07ABB29
:104C1000D4040950FFF7BCBF2DE9F04F85B01E4CFE
:104C20001E4EDFF858889B468A46074600250492A8
:104C300004F10209032D18D8384602F089FDA0B10D
:104C400096F82110B8F8280044EA0112125A5207C7
:104C500007D1090141EA0902125A02F07802102A2A
:104C600007D002F07AFD0135E4E7002005B0BDE889
:104C7000F08F04F10A02002311430E9A085A002112
:104C8000CDF800B0CDE90121049A514602F06FFD44
:104C900002F063FD0120E9E702804120D85C412059
:104CA000AC5741202DE9F0410446FFF771FF002C7D
:104CB00042D094F8AF0001283ED1E06FD4F8C8107C
:104CC000814239D06168D4F88460B4F89680081ABB
:104CD00020F0704702F050FD054694F8AE0002F057
:104CE00050FD08B1142001E094F8B20050FA85F0AC
:104CF00040F27121784348431049B0FBF1F0A8EB32
:104D0000000001B2B1F1FF3F05DC711C00F271201F
:104D100021F07046F5E7D4F8D000811B301A21F05D
:104D2000704120F07040B1F1006F88BF414204290A
:104D300024BFE06FC4F8C800BDE8F08140420F0016
:104D40005C4951F8200050B190F8F510012906D1C6
:104D5000002180F8F5104FF4004002F0F4BC7047D9
:104D600010B5CCB2022C07D3CD4B114620461A46C3
:104D700040F2425302F05BFC4E4850F8240008B168
:104D8000002010BDC64A2046002140F2475302F0E1
:104D9000E9FC012010BD00BF464951F8200018B3BE
:104DA000C16FD0F8D420531A891A23F0704321F030
:104DB0007041B3F1006F88BF4B4290F8EE20B0F81D
:104DC000DC10002A08BF0122514301EB41018B4254
:104DD0000BDA90F8F510012906D1002180F8F510C2
:104DE0004FF4004002F0AFBC7047012180F8F5108D
:104DF0004FF4004002F0CABCF8B51C4615460E46FA
:104E0000074602F097FB2B4951F82710A1B191F802
:104E1000B1200C27012A10D191F8AF1045EA060302
:104E2000069A234300294FF00C0108BF4FF0FF31D1
:104E30001A4308BF0F4600E00C2702F085FBF8B2CA
:104E4000F8BD00BF9847412080B501F047FA002027
:104E500080BD000080B50C4951F82000D0F8FC005E
:104E6000C079402805D23C2101EA900009A10858E8
:104E700006E00648064940F29A5202F056FB01202D
:104E8000BDE8804001F0FEBE98474120907A001CAA
:104E9000C07A001C010000000100000000000000BA
:104EA00000000000034951F82000002818BF01202D
:104EB000704700BF9847412010B50024032C07D845
:104EC000022002F045FC18B102F047FC0134F5E77E
:104ED00010BD00002DE9F04F85B004469A4850F807
:104EE0002470002F00F0D78097F85B0028B16B4842
:104EF0006B4940F2BD4202F018FB07F15C0002F082
:104F00004AFC80462046002102F04AFC8446834841
:104F100004944FEA441B634B634D00F1080950F8B9
:104F20000B6059F80B4097F8591081F00101B1EB73
:104F3000D67F0DD100EB0B019A461223240C51F8B9
:104F40000C2F039353464FEA124E4FF0F85208E0ED
:104F500000EB0B0110234FF4F85251F80CEF0393C0
:104F60002B4600EB0B0AB8F1000FDAF804000290B0
:104F70005BF8090000EA030040EA02004BF8090070
:104F8000086800EA0300474B086021D0B8F8040025
:104F900081070ED0414842494FF49E62CDE9008C12
:104FA000F04602F0C2FA0098DDF804C0C6463D4B58
:104FB00080882946B6F1FF3F4FEA9000C8BF1946E6
:104FC00059F80B20C8BF00041140084349F80B00F2
:104FD000DDF81080A400BCF1000F1FD0BCF8040065
:104FE00081070DD02D482E4940F2FC42A946E346E8
:104FF000754602F09AFABBF80400AE46294B4D46BE
:10500000B6F1FF3FC8BF1D46DAF80C104FEA90001A
:10501000C8BF000429400843CAF80C00A5B24FEAF3
:105020008E06ADB1B5F5F84F12D097F85600FF22B5
:1050300001230002013081B24FF4C66002F098FAF9
:1050400080F8008002F0EEFA4046294602F0AEFAFF
:10505000300420D0DDE90210FF22062321FA00F0FF
:1050600000F0030497F856000002013081B240F2CC
:105070002F6002F07DFA97F8702097F840100680B4
:1050800080F80480C47001325143817005B0BDE8DE
:10509000F04F02F0C7BA05B0BDE8F08F907A001C5F
:1050A000C07A001CFFFF00C000C0FFFF264951F876
:1050B000200010B1002102F041BB704780B52249A9
:1050C000096859B140B190F84E1090F85600023975
:1050D00018BF012101F016F9012080BD002080BD1C
:1050E000C1F30711184840F2FD1250F821004901A0
:1050F00090F8520002EB4000084AC0F347001F2816
:1051000028BF1F205358C3F30423834205D08B5874
:1051100023F4F85343EA00208850704710060950E2
:10512000B0B50D4602F006FA0446074850F82500CF
:1051300028B1002102F002FB284602F036FB20468F
:1051400002F002FA0020B0BD9047412070B514462D
:105150000D46064600F0E4FA08B12A2004E0304685
:105160002946224602F026FBC0B270BD2DE9F84365
:10517000814688880D4640F67A432026811F994251
:1051800079D8E9888B087C2B75D82B8940F6764432
:10519000A3F10A07A7426ED800EB80000131400856
:1051A000484303EB83014900814201D2202662E09B
:1051B0003E4850F82900B0F89600C0075AD16889D7
:1051C00047F6FF71101A80B2884201D2282652E0B9
:1051D0004846002102F0F3FA052805D1484601218E
:1051E00002F0EDFA052849D14846012102F0E7FA1C
:1051F00008B1092718E04FF48670042104223023F7
:1052000002F0B6F92A4A0521064602F0DDFA00202E
:1052100001213246A6F82D0030614FF6FF70F08272
:10522000484602F0D6FA0727484601214FF0010808
:1052300002F0C5FA05281DD14846012102F0CEFA38
:1052400049463A46064602F0CEFAA88886F82C80EF
:10525000394600223085D5F80600F0606889B084B0
:1052600068887084687886F826004846002602F030
:10527000BFFA00E024263046BDE8F8834846002106
:10528000002602F0ABFAA98800220185D5F80610A5
:10529000C1606989818469884184697880F82610B1
:1052A0004846032102F0A9FAE5E700BF105D41205E
:1052B0005108030070B514460D46064600F030FA5A
:1052C00008B12A2004E030462946224602F09AFA24
:1052D000C0B270BD0349B0F5057F18BF0021084674
:1052E000704700BF1D58001C10B504461148417B93
:1052F00001290CD1807B904218BF002807D10E4BAA
:10530000114620461A4640F2D73302F090F9FA4887
:1053100050F8240060B190F8C510012908D100218F
:1053200080F8C5104FF48030BDE8104002F00BBA91
:1053300010BD00BF29404120F77A001CF8B50F4688
:10534000054602F0F7F80446F44850F82560D6B157
:10535000B6F8920020F0100067F30410A6F892004F
:10536000284602F054FA67B1284602F055FA96F83A
:10537000A60030B1284631460022002700F0D6FAB8
:1053800002E0002700E00C27204602F0DDF8384656
:10539000F8BD00BF2DE9F041304D0446884695F830
:1053A0002200FF280AD002F03CFA95F822100222CF
:1053B000C90002FA01F1084302F038FA95F8230017
:1053C000FF280AD002F02DFA95F823100222C90016
:1053D00002FA01F1084302F029FA02F0ABF806469E
:1053E000D54850F82470A7B107F12C00414602F0CF
:1053F000A6F8B7F8920040F00800A7F892002046FF
:1054000002F00AFA20463946012200F08FFA002401
:1054100000E00C24304602F097F895F82200FF28AF
:105420000AD002F0FEF995F822100222C90002FA11
:1054300001F1884302F0FAF995F82300FF280AD019
:1054400002F0EFF995F823100222C90002FA01F1E7
:10545000884302F0EBF92046BDE8F0817446412014
:1054600058B1064990F8A2009422498810FB021016
:105470000349425A42F0200242527047AC57412041
:10548000028041202DE9F047DFF8489559F8205077
:10549000B5B10F46824628460121164602F04EF964
:1054A00095F8A300022813D1B5F892003D220121FE
:1054B000000658BF16225046BDE8F04702F0BBB9BF
:1054C000D448D54940F2CB32BDE8F04702F02DB8C0
:1054D00002F0B6F98046B5F88A00696F0130A5F888
:1054E0008A00A86D084420F07040A865504602F07C
:1054F000ACF98249C0B276B101EB4000A97E407898
:105500004418FEF761FE00F003002044FF2828BF86
:10551000FF20A87641E011F8102095F8C330FF264F
:105520001A44FF2A28BF3246AA762A6EBB1AD21B1B
:1055300023F0704422F07042B4F1006F88BF5442EF
:10554000012C10DB01EB40004778FEF73DFE00F038
:105550000300A10A38444843A97E51FA80F0FF288D
:1055600038BF0646AE76B5F88210686F06314843FC
:10557000844207DD012085F8C5004FF4803002F039
:1055800005F90AE095F8C500012806D1002085F844
:10559000C5004FF4803002F0D6F895F8BB0068B132
:1055A00059F82A6096F8A700311891F9AE007F28C3
:1055B0001CBF91F9B61011F1010218D195F8BA008B
:1055C00020B1FF281CBF013885F8BA00B5F8920059
:1055D000C00501D4012204E0286EE96E421A18BF0A
:1055E000012250464146BDE8F04702F033B9B0EB26
:1055F0000109D8BF4FF0000996F8C00096F8C170B5
:1056000090B101281AD0022825D0FF2847D196F85A
:10561000BC205FFA89F191423FD896F8BE2000275E
:10562000914288BF01273DE096F8BE2096F8BF3032
:105630005FFA89F11A448A4216D330E096F8BE2008
:1056400096F8BF305FFA89F1D21A8A4216DD002F30
:105650004AD001214BE096F8BC2096F8BD305FFAA5
:1056600089F1D21A8A421ADD012F06BFB6F89E10C0
:1056700001310121A6F89E10012713E096F8BC2005
:1056800096F8BD301A448A4209D2022F06BFB6F8F6
:105690009E1001310121A6F89E10022702E0002190
:1056A000A6F89E10B6F89C10B6F89E2086F8C17039
:1056B0008A4205D8FF287FF481AFFF2F3FF47EAFE9
:1056C0004FEA0A20FF220223011D40F2162001F0BA
:1056D0004FFF477080F8009001F0A4FF002086F88B
:1056E000C070A6F89E0069E7B6F89E100131A6F8D2
:1056F0009E100027D6E700BF6C5D4120DCCE050080
:10570000B44951F8200030B190F8A3000138B0FA44
:1057100080F0400970470020704700BF6C5D412059
:10572000AC4951F8200028B190F85600002818BF65
:1057300001207047002070476C5D41202DE9F04149
:10574000334D0446884695F82200FF280AD002F01F
:1057500068F895F822100122C90002FA01F1084305
:1057600002F064F895F82300FF280AD002F059F8F7
:1057700095F823100122C90002FA01F1084302F052
:1057800055F801F0D7FE0646924850F82470CFB184
:10579000B86A28B1A748A84940F2792201F0C5FEAD
:1057A000B7F89200C7F8288040F00800A7F89200E8
:1057B000204602F031F820463946012200F0B6F8C2
:1057C000002400E00C24304601F0BEFE95F82200D3
:1057D000FF280AD002F025F895F822100122C9000E
:1057E00002FA01F1884302F021F895F82300FF281E
:1057F0000AD002F016F895F823100122C90002FA27
:1058000001F1884302F012F82046BDE8F08100BFA4
:1058100074464120907A001CF77A001C2DE9F04173
:10582000140A0746984615460E46204602F017F819
:105830000D4951F8241059B10089328882420AD3A7
:10584000092C05D891F8980000F00300032802D134
:105850000020BDE8F081384631462A464346BDE87F
:10586000F04102F001B800BF105D41202DE9F04782
:105870001E4614460F46814601F05CFEDFF854A137
:1058800080465AF829504DB195F8560040B16A4A01
:10589000002140F2123301F0CAFE20E00C2633E072
:1058A0000A98DDE90821A5F854000120A5F84E204A
:1058B000B20085F85600A000A5F84C00B800A5F885
:1058C00080004801C5E91120686FB0EB860F06D94A
:1058D00095F8A810022902D3484601F0CAFF95F8AE
:1058E000A300002685F8506070B901F0A9FF0446B6
:1058F0005AF829000021002601F020FF95F8A200A7
:105900002146012201F0A6FF404601F01DFE30466F
:10591000BDE8F0872F4951F8200028B190F8A30086
:10592000023818BF01207047002070472DE9F0476A
:10593000054691F8A300002849D1B1F892000E461F
:10594000C00744D096F8C200002840D02148144631
:1059500050F8258001F074FF96F856108146B06D1E
:10596000012902D196F8501089BBA0EB090121F062
:105970007042716F8A422AD9B2FBF1F7B6F88A20D9
:105980004FF6FF7CBBB29A4208BF67441FFA87FA02
:10599000924509D32748284940F25A2201F0C5FD13
:1059A000B6F88A20B06D716F01FB1A00D21B00217E
:1059B000A6F88A2020F07040B065404601F0BEFE97
:1059C000284649462246BDE8F04701F043BFBDE8FE
:1059D000F08700BF6C5D4120182804BF064870475F
:1059E000012804BF0348704708B9044870470020E5
:1059F000704700BF4D51001CB552001C6D51001C7A
:105A0000B0B50B4CA17F81B191FAA1F2B2FA82F547
:105A100030B90848084940F2362201F086FDA17FDE
:105A20000120A84021EA0000A0770020B0BD00BFFF
:105A300020474120907A001CF77A001C10B541F2F3
:105A40000100834206D1084641F20101BDE8104041
:105A5000FEF7F0BC0A4A00205D280ED032F8304034
:105A60009C4201D00130F7E702EBC000426822B14E
:105A700008461946BDE810401047002010BD00BF81
:105A800084C50500B0B5294C94F84C5035B1E47C80
:105A9000022C03D14C7B0CB18C7B1CB1BDE8B04017
:105AA00001F0ECBE0020B0BD09B102230B7002284A
:105AB0000FD81D4B022853F8301003EBC0035B686E
:105AC0001160536005D0012804D000BB184840790C
:105AD00010B37047154890F82A3003F001031943BA
:105AE000117090F82C3003F0010341EA430111706A
:105AF00090F82D3003F0010341EA8301117090F812
:105B00002B0000F0010041EAC0001070704709A2AC
:105B10000221812301F08BBD080E40EA032000F032
:105B2000FB00D070704700BF6CC805006063412067
:105B3000294041206C6D5F70617463682E630000C2
:105B400041F20511884204BF0448704740F20151F8
:105B500088420CBF02480020704700BF3D5A001C1D
:105B6000855A001C70B5054640780C46182812D19D
:105B7000AD49200A51F8206096F8360001280AD174
:105B8000204601F00EFD322805D096F83C00022890
:105B90001CBF002070BD28462146BDE8704001F0C2
:105BA00072BE00BFF8B506469F480D0A0C4650F875
:105BB0002570084601F0F5FC1F280DD025280ED1D0
:105BC00097F8360058B997F8393028460B21232228
:105BD00001F05EFE0020F8BD002087F87A01304613
:105BE0002146BDE8F84001F058BE00BFB0B501F055
:105BF000A1FC374D0446284601F0CDFD10B101F05F
:105C00007AFDF8E72046BDE8B04001F09DBC00BF3A
:105C10002F480021C0E90011704700BFF0B585B0E2
:105C20006E460546304601F03DFE01F083FC284FEC
:105C30000446384601F0AFFD58B101460079A8424C
:105C400003D1084601F057FDF3E7304601F077FC39
:105C5000EFE7009818B11E48694601F028FE20467B
:105C600001F072FC05B0F0BDB0B501F063FC044674
:105C7000174801F090FD0546204601F065FC2846D6
:105C8000B0BD00BFF8B5054611480C4601F014FE42
:105C9000042816D81C20002101F0A1FC064601F0C2
:105CA00049FC07460A48314601F049FC384601F0F4
:105CB0004BFC3571701D21461422BDE8F84001F0FF
:105CC000ACBC280222210130BDE8F84001F0F9BD4A
:105CD00014424120F8B5054653480C0A50F8247088
:105CE000084601F05EFC192807D8012101FA00F0EE
:105CF0001A49084201D00020F8BD287800F00103BD
:105D000097F8360087F8393001281CD105F10906CB
:105D1000304601F0DBFD142817D3287A022814D26C
:105D200007F50A7031460A2201F0D5FD69682A7A22
:105D30002046334601F0D4FD287A002818BF012000
:105D400087F84C02D7E7242202E097F839301E2268
:105D500020463C2101F09CFDCDE700BF0100C003BF
:105D6000F8B5064630480D0A0C4650F8257008462E
:105D700001F017FCA0F11601042915D3A0B12E28BB
:105D80000DD11A48342115FB0100407A28B197F84B
:105D9000360010B93078C0071FD1F08850B1307884
:105DA00000F0010087F8390030462146BDE8F84090
:105DB00001F09BBD1D482146026840F204609047F7
:105DC00030781721122200F00103284601F060FD0F
:105DD0002046202101F08EFD05E0284617212322D0
:105DE000012301F055FD0020F8BD00BF685C412093
:105DF00070B505460C46080A0B4951F8206020464C
:105E000001F0CFFB322809D196F83600012805D1E0
:105E100006482146026840F2046090472846214621
:105E2000BDE8704001F06BBD605C412050444120F2
:105E300010B51446212807D070B9B1F5800F0BD1E9
:105E400098B2FFF7DDFD08E0202905D1184601F0E2
:105E50004DF90121002001E000200021217010BD3A
:105E600010B51446A0F11202032A0FD9072818D042
:105E700020281DD0232821D0292857D102294AD0F3
:105E8000082953D11846FEF7CFFB4FE0DFE802F0B8
:105E9000021D2439B1F1807F48D11846FEF750FE2B
:105EA00051E0B1F5002F41D11846FFF7D9FA4AE089
:105EB00008293BD1184601F003F837E0B1F5007F1F
:105EC00034D1D8B201F022F930E0B1F5804F2DD1B4
:105ED0001846FEF79FFE36E0B1F1004F1FD0B1F13A
:105EE000005F20D0B1F5807F22D0B1F5805F23D054
:105EF000B1F5002F24D0802918D11846FEF7D2FE24
:105F000021E0022912D11846FFF7D8F80138B0FA7B
:105F100080F0400918E01846FEF716FD06E0D8B2FA
:105F2000FFF7C4F80FE0D8B2FEF7D4FF00200BE073
:105F30001846FEF705FF06E01846FEF72DFF02E0C3
:105F4000D8B2FEF787FF0120207010BDB0B505461E
:105F500014460A4604990020072D20700FD0132DF7
:105F600027D1B2F1006F17D0B2F1805F19D1D8B24A
:105F700001F0CAFC98B1002020700120B0BDB2F53C
:105F8000805F10D0B2F5804F14D0B2F1006F08D10D
:105F9000D8B2FFF7D3FBB0BDD8B201F0BAFC0120F4
:105FA00020700020B0BDD8B2002918BF0121FFF732
:105FB000C5F9B0BDD8B2FFF7EDF9B0BD10B51446C4
:105FC00012280FD1029AB1F5800F0DD0B1F5805F84
:105FD00008D1D1B2184601F0A1FC0138B0FA80F026
:105FE000400905E0002003E0D8B2D1B2FEF756FD2B
:105FF000207010BD10B5144600221428227008BF6E
:10600000B1F5803F06D1DDE90212D8B2C9B2FEF780
:106010001BFF01220020227010BD000070B5073860
:1060200014460A4600210E28217033D8DDE90415F4
:10603000DFE800F0082230303030303030303013BC
:1060400029311B00B2F5800F31D0402A22D1D8B2BD
:10605000C9B2EAB2FFF748F926E0B2F1804F19D190
:10606000EAB21846FEF76EFD1CE0042A12D1EAB22D
:106070001846FFF735F817E0B2F5806F0AD1D8B2AD
:10608000FFF748FC05E0B2F5803F03D1C8B2FEF748
:1060900009FF48B970BDB2F5806FFBD1EAB218466E
:1060A000FEF75EFE0028F5D10120207070BDD8B249
:1060B000EAB2BDE87040FFF7E5B9B0B5144600227A
:1060C0001528227008BFB1F5007F01D00020B0BDB7
:1060D00004ADD8B226CD2B46C9B2FFF721F8012175
:1060E0002170B0BDB0B5144600222628227008BF2A
:1060F000402900D0B0BD04ADD8B226CD2B46D2B2D7
:10610000C9B200F081FE01202070B0BD00201070E7
:106110000020704710B5A0F1210314460022072B80
:106120000AD8DFE803F00456565610161F47082910
:106130004AD100F0F9FE47E017284AD1012943D19E
:10614000FEF7BAFE44E0B1F5805F3DD1FFF74EFDAA
:106150003EE0B1F5800F35D0B1F5001F34D100F02D
:1061600089FE31E0B1F5807F2ED11B480168D0F85F
:106170008802084328D01948016841F004010160F1
:106180000168002903D40168B1F1FF3FFBDC01F095
:10619000CAFB022001F0CCFB1149B0FBF1F0114920
:1061A0000A686FF3184242EA0040012240F40000FE
:1061B00008600EE0B1F5802F08D0082904D1FDF762
:1061C0008DFF01E000F068FE002202E001F034F8EB
:1061D0000122227010BD00BFD86741200C0004507E
:1061E00000127A001400005070B586B014460246C2
:1061F0000020142A20701DD0132A37D0072A47D137
:10620000B1F1804F43D10AA8BDF83430BDF8302039
:10621000BDF83840BDF83C50BDF8406000F11C01AD
:10622000059110F8041F9DF828008DE87000FFF715
:106230001DFB2DE0B1F5005F29D10AA8BDF834306F
:10624000BDF83020BDF838509DF83C6000F11801D1
:10625000049130F8041F9DF82800CDE90056FEF7A0
:10626000CBFDFF281CBF0121217011E0B1F5004FCB
:106270000DD10AA80CAC00F11401039150F8041FD1
:106280009DF828001CCC0094FEF7C6FC00E000201E
:1062900006B070BD1CB500232528137008BF08295F
:1062A00000D01CBD04A89DF8204000F1140101910C
:1062B00050F8041FDDE906230498009400F02AFD3D
:1062C0001CBD0000A24A0021072904D05356834276
:1062D00001DA0131F8E7B6480170704710B5084897
:1062E000B34C016821F01001016094F90200FFF73E
:1062F000E9FF207896490856BDE8104000F088BABA
:10630000E0400850F8B5F64F0446F64A0D46387896
:106310007978165C39B1284600F0B4FC7878B0FA88
:1063200080F0470900E0012770B200F023F8021F57
:1063300087F00101002D18BF0125B2FA82F252093F
:10634000114029400844C1B22046BDE8F840FEF79C
:106350004FB800BF70470000044805A10068C0F3B3
:106360004100032808BF0220085C704750280850ED
:1063700001000200002100F069BC000010B500F02F
:10638000C3F9D748C17800296BD16F496F4A40F2F1
:10639000FF33C1F800210A6842F010020A600A685F
:1063A00022F080720A600A6822F080020A60D1F846
:1063B000CC2042F08062C1F8CC20D1F8D4206FF319
:1063C0009322C1F8D420D1F8D42042F48032C1F80D
:1063D000D420D1F8D4209A43C1F8D420D1F8D420C5
:1063E00042F48072C1F8D420D1F8D8206FF3932200
:1063F000C1F8D820D1F8D82042F48032C1F8D82092
:10640000D1F8D8206FF30902C1F8D820D1F8D820EC
:1064100042F4A072C1F8D820A622C1F8DC20D1F83D
:10642000DC2022F47062C1F8DC20D1F8DC2042F4D8
:10643000C062C1F8DC20D1F8DC2022F47042C1F83F
:10644000DC20D1F8DC2042F42042C1F8DC200A6CC8
:1064500042F080020A64D1F8E02022F00402C1F880
:10646000E02000789F49085600F0D2F9394C3A48AC
:106470003B49404A20603948C0F8EC133949C0F81C
:10648000F4133949C0F8F8133849C0F8FC1340F246
:106490005571C0F8001436490A60374A4A60374AD5
:1064A0008A60374ACA600D22D4F8901362F305015E
:1064B0003722C4F89013D0F8A81062F305015022D7
:1064C000C0F8A810D0F8A81041F48051C0F8A81066
:1064D000D0F8A81041F40051C0F8A810016862F388
:1064E00017410160016862F3070140220160D4F89E
:1064F000081462F30D010B22C4F80814416862F31A
:106500000E2103224160416862F306014160606828
:1065100020F4005060606068800405D519481A496D
:1065200040F2F44201F001F8606840F4005060600D
:106530006068800448BF10BD1248134940F2F94218
:10654000BDE8104000F0F1BF0040085055555568B7
:10655000EE79001C70000950001020208C040950B6
:106560004000C00840053C00500350005507500053
:106570009008095007090900030507000309A81C32
:1065800003002817907A001C947A001C10B504466A
:10659000072001F0D2F98A4AC10FD170C0F306601A
:1065A0005070FFF7EBFE2046BDE8104000F002B847
:1065B00020404120F0B595B0044601208DF803003D
:1065C000072001F0BAF906463F484049C4E90810DF
:1065D0001120310C84F82C003D48606106F47F00E6
:1065E000B0F5202F08BF09214DB2284600F010F960
:1065F00084F82D003748A06237482060F0B20A289E
:106600004FEA162008BF092676B20B2D04DB33496A
:106610000A6842F008020A60694FB87128467E7124
:10662000BD70FFF74FFE2F490020072804D00A56FF
:10663000B24201DA0130F8E7F8712B482B492E4AB3
:106640002E4BC4E906102A482A49C4E90132C4E99C
:106650000310002101A8282903D04A004254013127
:10666000F9E728216FF04E02502904D002EB4103D4
:1066700043540131F8E7224801A9502201F062F9A0
:10668000204E04F12E050DF103013A202A4633680D
:10669000984708B1D820287004F12F0533680DF110
:1066A00003013B202A46984708B1C42028703034A3
:1066B00033680DF103013C202246984708B1BA2007
:1066C000207015B0F0BD00BF0B68001C0768001CEF
:1066D000216B001C9D6A001C0568001CE0400850EE
:1066E00020404120EE79001C0D68001CB56A001C9A
:1066F000D174001CE16B001C856B001C5563001CF1
:1067000000814120DC47412029480121D14B016013
:10671000C2490A6822F4F0620A600A6842F4A06280
:106720000A604A681A40234B4A604A681A43224B5F
:106730004A604A6B1A40214B4A634A6B1A434A63C8
:10674000BF4AD2781AB94A6B42F020624A631D49A7
:106750000A1D42651C4A8265C1651C491D4A0166C5
:106760001B4941661B318266C1661B4901671B4993
:1067700041671B4981671B49C1671B49C0F88010ED
:106780001A49C0F884101A49C0F888101949C0F88D
:106790008C101949C0F890101849C0F89410184985
:1067A000C0F898104FF48E61C0F89C10704700BF7D
:1067B0002C410850A0823A00FCFFF3F001000800D1
:1067C00020404120FCEFFF00FDCFFF00050001004D
:1067D0001DB0020037C003001580FF00D5FFFA008E
:1067E0008A9FF600518FF40050DFF600A1CFFE0023
:1067F0004E300C0048511D0065122F006FB33D0054
:106800002CF44500704700207047704740B2704735
:106810002DE9F041804E0446804F56F8080C0B2CB1
:1068200010DB40F0100046F8080C30686FF39A4017
:106830003060306840F02E7030602046FFF79AFDDF
:10684000804663E020F01000002C46F8080CF86A3F
:1068500020F00600F862F86A20F00100F862386B58
:1068600020F478403863386B20F4806038634FF050
:106870000000C8BF0120042C4FEA8000C8BF0A20D6
:106880000A2810D0042814D010BBF86A40F0020087
:10689000F862F86A40F00100F862386B40F400607A
:1068A0003863386B12E0F86A40F00400F862F86A66
:1068B00004E0F86AF862F86A40F00100F862386BA8
:1068C00040F478403863386B40F48060386305E00A
:1068D00053A054A140F2A63201F039F8204601211C
:1068E00000F0E8F88046F06A20F0FC00F062F06A00
:1068F00040EA8800F0625248407838B930686FF357
:106900009A403060306840F0217030602046FFF7D8
:1069100031FD4B4A4DA5D1787B6B23F07C030029D8
:106920007B6348A308BF1D46285C7B6B43EA80005D
:10693000786349B1786B0D2C20F07060786303D0D8
:10694000786B40F0206078635078002860D00D2C80
:106950005CD11079002859D000203E4A7064386814
:1069600020F4F0603860386840F4806038607868FF
:1069700000EA0200384A7860786840EA02007860ED
:1069800039B9786B354908407863786B40F07E0000
:1069900078634FF480503749C6F8980042F20100FE
:1069A000C6F89C002E48C6F8A0002E48C6F8A400E1
:1069B0002D48C6F8A8002D48C6F8AC002C48C6F8EB
:1069C000B0001930C6F8B410C6F8B8002A48C6F8A6
:1069D000BC002A48C6F8C0002948C6F8C4002948A7
:1069E000C6F8C8002848C6F8CC002848C6F8D00029
:1069F0002748C6F8D4002748C6F8D8002648C6F865
:106A0000DC0040F2C440C6F8E00001E0FFF77CFE85
:106A10004046BDE8F08100BFE840085024280850F7
:106A20003000000072665F74785F706F7765725F28
:106A300062617369635F636F6E666967000000007F
:106A4000204041200004070A121F1F1F0005080EE6
:106A50001B1B1F1F0F7C80FF0001100080FFF3F045
:106A600000D0FF00F71FFF00EDCFFE00EF8FFF000B
:106A7000041001001BF00100FCFFFD00BF0FFA0035
:106A800088FFF7008B2FFB00F7BF0500DC401700E5
:106A90001B622C0068733F0065C44A00044801680B
:106AA00041F0010101600168C906FCD5704700BFD3
:106AB0003C000450B0B50C4605460B2805DB2846C3
:106AC0002146BDE8B04000F0C1B8FFF745FCC0EB7F
:106AD00000102B4901EB40000021102907D010F9CC
:106AE00011207F2A05D0AA4204DA0131F5E71021EE
:106AF00000E00139CAB2EDB2B4FA84F410F81230F1
:106B000064095B1B18BF0123002A18BF0122234020
:106B10001A40891AC9B200EB41004078B0BD00BFED
:106B2000B0B50D460446FFF717FC012D15D14549B8
:106B300091F905100B2910DAC0EB0012104901EB96
:106B400042030022102A10D003EB42056D78FF2D7E
:106B50000BD0A5420BD00132F4E7601C072C04D8FF
:106B60000138FBD14648005D07E0002005E0C0EB9E
:106B7000001001EB400010F8120040B2B0BD00BFA1
:106B8000F579001C70B52F4D0446687818B1204681
:106B9000FDF7BEFA2871287800B32B4E95F9062030
:106BA000315691421ADD01382870C0B23056FFF7D5
:106BB0002FFE28783056FFF7DDFB01462046FDF713
:106BC00017FC287895F9062000233156B0FA80F09A
:106BD00040099142D8BF0123184370BD012070BD08
:106BE00070B5184D0446687818B12046FDF790FA44
:106BF00028712878062822D8134E95F90520315699
:106C000091421CDA013028703056FFF701FE2878D7
:106C10003056FFF7AFFB01462046FDF7E9FB287829
:106C200095F905200023315691424FF00001A8BF8D
:106C30000121062888BF012343EA010070BD01201D
:106C400070BD00BF20404120EE79001C10B50C4BF8
:106C50000022082A04D09C5C844202DA0132F8E760
:106C60000024201AB1FA81F118BF01204909084017
:106C7000D1B2002918BF01210840101AC0B210BDBE
:106C8000687A001C074900280A686FF39A420A6074
:106C90004FF0217208BF4FF02E7208681043086051
:106CA000704700BFE8400850F0B585B000201C4692
:106CB00002AF15460E46022B12A24FF00A01ADF8A4
:106CC0001000CDE9020028BF02243846234600F018
:106CD00043FE14204FF4006331462A46002C0190F5
:106CE0000B4810F824000090384608BF4FF400739A
:106CF00000F037FE044610B1204600F037FE204673
:106D000005B0F0BD4B455F455654256400000000BA
:106D1000285005002DE9FF47044601209A46904679
:106D20000D460DF10E010DF10F028DF80E002448F5
:106D3000036886209847DDF83090A8B100208DF8D0
:106D40000F00B9F1010F38D1012021462A464346F0
:106D5000CDE900A01BA000F0D9FB29A021462A46BE
:106D600000F0F5FDBDE8FF879DF80F000028E8D092
:106D7000204600F000FE0421002211FA80F00021DC
:106D800020F0030707F1200083B241F2091000F060
:106D9000EFFB07F11001064600F0F2FD301D214621
:106DA00080E82005022086F80190307006F110007E
:106DB00000F0EBFD304600F0D6FBBDE8FF8700BFDA
:106DC000DC474120727769705F6173736572743A52
:106DD00066696C653A2025732C206C696E652025E8
:106DE000642C20706172616D303D25642C7061727D
:106DF000616D313D25642C747970653D25640A0010
:106E00004153534552540000BCB5194900200DF1BF
:106E100006020023022810D051F820404CB194F80B
:106E2000AA50972D05D3B4F9A83093FBF5F40123AC
:106E300000E0002414540130ECE7BBB141F209102A
:106E400006210022A42300F093FB044630201A49B7
:106E50004F222070BDF8060001F50E71A4F8010064
:106E6000E01C00F0DAFB204600F0DCFBBCBD00BFFC
:106E700098474120B0B50F4C0A2020700A2000F03E
:106E80005CFD632804D80420042500F056FD25701D
:106E90000949C1F89402B0BD10B5064C207800F045
:106EA0004CFD28B1207800F048FD0349C1F8940258
:106EB00010BD00BF40404120D8674120FEF796BE7C
:106EC000F8B5054600F036FB164E04462946304616
:106ED00000F060FD18B11348294600F060FD002164
:106EE0007F48366876B172686B689F1A27F07047E2
:106EF000874207D8934203D132892B89934201D923
:106F00003146EEE7074819B12A4600F04DFD04E08E
:106F1000294600F04EFD00F051FD2046BDE8F84046
:106F200000F012BBC46A41202DE9FF47DFF8A491AD
:106F300001A8D9F8007000F011FBDFF89C8198F8E7
:106F40002F00FF280AD000F06CFC98F82F100822C0
:106F5000C90002FA01F1084300F068FCD7B1D9F882
:106F60001400B8B17968019A8B1A511A23F0704352
:106F700021F07041B3F1006F88BF4B425749C27E88
:106F8000097811448B4205DC0021C9F81410016A0C
:106F900001B18847002F00F0858038897968A0F515
:106FA0008762B2F1FF3F05DC481E02F2712220F039
:106FB0007041F6E701984A4CA2460B1A23F0704341
:106FC000A34206D881422FD1BDF80800824208466C
:106FD0002ADA484600F0DFFB09F118050146284689
:106FE00000F0ADFA3D4C3F4ED9F80070002F59D05B
:106FF000207879685346081A81190198421A22F0BC
:107000007042524510D821F07041814204D1398933
:10701000BDF808208A4207D9484600F0BCFB01466B
:10702000284600F08CFADFE72C496FF070420978AF
:1070300051407A6811440A1A22F07042524508D829
:1070400021F0704188422DD13889BDF8081088425E
:1070500028D8484600F09FFB0546D9F8140010B127
:10706000016A01B18847E869C9F8145030B120209D
:10707000294600F0A8FCE96928468847D9F80000AD
:1070800080B1D9F8141040684968401A6FF078410F
:1070900020F07040884205D31B4913A040F209122A
:1070A00000F043FAD9F8180008B100F091FC00F0A4
:1070B00094FC98F82F00FF280AD000F0B2FB98F853
:1070C0002F100822C90002FA01F1884300F0AEFB3C
:1070D000BDE8FF87D86A412074464120786A412084
:1070E000FEFFFF07010000F04153530080B540B19F
:1070F000817EFF2905D1044A002140F2211300F0CE
:1071000096FA002080BD00BFCF7A001CF8B53F4D35
:107110000446A87FFF2809D000F083FBA97F08223E
:10712000C90002FA01F1084300F080FB384E96F8DE
:10713000020120B937483849A22200F0F6F906EBDF
:1071400004172001354A17F80C1F105A69B100F0D6
:107150003000302809D106EB04114B685BB12001E7
:1071600089680422305898470AE02A482A49C322ED
:1071700000F0DBF928E027482749B22200F0D5F9D2
:1071800096F80001A04202BF601C00F00F0086F8D4
:1071900000010020A97F387096F80201FF29A0F1B4
:1071A000010086F8020111D000F03BFBA97FF0221C
:1071B000C9008A40904396F802211201D2B202FA25
:1071C00001F1084300F032FB96F80201C0B248B169
:1071D00001280AD196F80001013000F00F0086F86E
:1071E000010102E0402000F0AEFAA87FFF2808BFAE
:1071F000F8BD00F016FBA97F0822C90002FA01F1D0
:107200008843BDE8F84000F011BB00BF7446412040
:10721000086B4120907A001CDF7A001C008041201E
:1072200001A000F073B900BF656E61626C65204C0F
:1072300043505520322E2E0048494448016100F544
:10724000032141617321C1604FF4804181608168F5
:1072500041F408618160816841F410718160816846
:1072600041F00101816001688907FCD5012141607D
:10727000816821F001018160704700BF80B500F096
:10728000B1FB3248012133224160816821F00101C4
:1072900081602F4901612F494161C26044F21002AF
:1072A0008260826842F408628260826842F41072EE
:1072B0008260826842F00102826002689207FCD517
:1072C00001224260826822F001028260224A026149
:1072D00000F5012242614FF40072C26044F21002D4
:1072E0008260826842F408628260826842F41072AE
:1072F0008260826842F00102826002689207FCD5D7
:10730000012201F5C0514260826822F001028260D0
:10731000124A026141617321C16044F2100181602F
:10732000816841F408618160816841F41071816075
:10733000816841F00101816001688907FCD5012164
:107340004160816821F00101816080BD0010005022
:10735000E0564120002808500C4D41204840412073
:10736000F0B53C483C4940F2062501603B483C49A9
:1073700001603C483C4901603C483D4901603D4852
:107380003D4901603D483E4901603E483E4901603B
:107390003E483F4901603F483F4901603F484049FE
:1073A000016040484049016040484149016041480E
:1073B000D0E91414D0E91223D0F8807047F0080700
:1073C0002C4341F608054465D0F894402C433A4DCF
:1073D000C0F89440D0F8A0402C43C0F8A040D0F8AA
:1073E0009C4044F48074C0F89C40D0F88C4044F435
:1073F0000074C0F88C40D0F8A44044F00A04C0F8EF
:10740000A4400468D0E90756C0F8807044F48004B2
:107410000460D0F8844044F00804C0F88440274C4D
:107420002C4346F48065C0E90745254C2343D0F83A
:107430009840C364234B1A438264C26D42F0010238
:10744000C265214A2243C0F89820204A11430165B1
:10745000F0BD00BFC04441200D61001CC444412068
:107460001561001CA4444120615E001CA044412021
:10747000315E001CAC444120BD5F001CA84441208B
:107480004D5F001CB44441201D60001CB0444120ED
:10749000F55F001CBC444120E560001CB84441205D
:1074A000BB60001CCC4441209562001CC8444120B4
:1074B000E961001C0C564120080004004050484877
:1074C00000C001180010404140006000803509A054
:1074D00070B50C4D0446687818B12046FCF718FECC
:1074E0002871E879084E28703056FFF791F928780E
:1074F0003056FEF73FFF01462046BDE87040FCF7DE
:1075000077BF00BF20404120EE79001C4FF2357C50
:10751000C0F2040C604743F2710CC0F2000C6047EB
:1075200048F6257CC0F2050C604744F6097CC0F2A1
:10753000050C604740F2DD7CC0F2000C604745F668
:10754000D13CC0F2000C604740F2E57CC0F2000C78
:10755000604740F6FD1CC0F2000C604746F2511C2B
:10756000C0F2050C604743F20D5CC0F2010C6047AD
:1075700046F6E54CC0F2010C60474BF6E12CC0F238
:10758000020C604748F2691CC0F2000C604743F6E9
:10759000B13CC0F2050C604741F67D0CC0F2010C15
:1075A000604746F6756CC0F2010C604745F2C16C4D
:1075B000C0F2000C604745F2696CC0F2000C6047F5
:1075C00049F6B11CC0F2020C604745F2053CC0F21E
:1075D000000C604744F6D10CC0F2000C604746F640
:1075E000654CC0F2010C604746F66D2CC0F2010CF0
:1075F000604746F2717CC0F2010C604747F2296C8B
:10760000C0F2010C604747F2C17CC0F2010C604738
:1076100045F2416CC0F2000C604740F6212CC0F2EC
:10762000000C604746F6555CC0F2010C604744F61A
:10763000457CC0F2050C604745F2653CC0F2040C85
:10764000604740F6AB2CC0F2000C60474DF6793C29
:10765000C0F2010C604744F2392CC0F2020C6047C2
:1076600049F20D4CC0F2020C60474FF26D7CC0F243
:10767000010C604748F22D6CC0F2010C60474FF2DC
:107680008D1CC0F2010C60474DF2954CC0F2010C0C
:1076900060474DF2A50CC0F2010C60474EF6751C18
:1076A000C0F2010C604746F6C96CC0F2010C60479D
:1076B00049F27D2CC0F2010C604749F2D92CC0F28E
:1076C000010C604745F2994CC0F2000C604747F24C
:1076D000D94CC0F2000C604749F2E54CC0F2010CF5
:1076E00060474BF6211CC0F2010C60474FF2C90CF9
:1076F000C0F2010C604746F6090CC0F2010C60476D
:107700004EF2293CC0F2010C60474BF6D91CC0F286
:10771000010C604745F2914CC0F2000C604746F204
:10772000292CC0F2000C604740F61D2CC0F2020C60
:10773000604747F2814CC0F2000C604747F27D0C75
:10774000C0F2050C604745F6897CC0F2050C604725
:1077500049F2816CC0F2020C604749F2E96CC0F258
:10776000020C604744F68D7CC0F2050C60474BF676
:10777000296CC0F2020C604745F6653CC0F2050C6E
:10778000604745F2593CC0F2020C604745F6C57CA3
:10779000C0F2050C604745F6AD3CC0F2000C6047F6
:1077A00045F2C55CC0F2000C604749F6352CC0F2CA
:1077B000020C60474BF6B97CC0F2020C604740F205
:1077C000451CC0F2030C604740F26D1CC0F2030C74
:1077D000604740F2791CC0F2030C604740F21D1C68
:1077E000C0F2030C604740F2E91CC0F2030C604792
:1077F00040F2256CC0F2030C60474EF6950CC0F2C7
:10780000020C60474CF6E53CC0F2020C604745F6BE
:10781000011CC0F2030C604748F2454CC0F2030C57
:10782000604745F20D7CC0F2000C604745F2297CB0
:10783000C0F2000C604744F6E16CC0F2030C6047F4
:107840004DF21D7CC0F2030C604747F24D1CC0F2A4
:10785000030C604747F2A96CC0F2030C604744F286
:10786000BD1CC0F2040C604746F6F93CC0F2030CA4
:10787000604748F2911CC0F2030C604746F2215C5D
:10788000C0F2040C604748F2B96CC0F2040C6047C7
:107890004DF2913CC0F2010C604748F6717CC0F299
:1078A000040C604745F6A12CC0F2000C604745F679
:1078B000453CC0F2000C604745F6894CC0F2000C14
:1078C00060474EF6213CC0F2010C604745F6A96CBA
:1078D000C0F2000C604740F2FB1CC0F2050C604790
:1078E0004FF24D2CC0F2010C60474CF2990CC0F2E3
:1078F000040C60474DF6A13CC0F2010C60474DF20C
:10790000A91CC0F2040C604747F2E52CC0F2410C00
:10791000604747F28D3CC0F2410C604747F2712C42
:10792000C0F2410C604747F2192CC0F2410C60478D
:1079300041F6614CC0F2000C604741F6612CC0F288
:10794000000C604740F6212CC0F2000C60474DF659
:10795000E95CC0F2040C604743F2AD2CC0F2050CA8
:10796000604743F2DD6CC0F2050C604743F6815C72
:10797000C0F2050C604740F69D2CC0F2000C604739
:1079800040F66F2CC0F2000C604740F6C52CC0F2E8
:10799000000C604745F68D2CC0F2000C604745F6A0
:1079A000451CC0F2000C604745F6B52CC0F2000C37
:1079B000604745F6554CC0F2000C604746F2C15C8A
:1079C000C0F2050C604747F2316CC0F2000C604712
:1079D00046F2CD0CC0F2050C604746F6817CC0F241
:1079E000050C604749F2A10CC0F2050C604700038A
:1079F00006090D1013EC13EF15F217F61BF71DF81F
:107A00001EF920FA22FB24FC27FD2BFE2FFF340059
:107A10003E7FFFEC11F013F317F718FA1BFD1E0061
:107A200025012B022F0334043D7FFF0000000000DE
:107A300000E610F011F912FE130115041A052006D4
:107A4000240728082E09340A3E7FFF0000000000AA
:107A5000655B001CAB7A001C82000000A55B001C6B
:107A6000A67A001CD1000000000306090D0D1013BA
:107A700030000000F07A001CD55C001C9F7A001CCE
:107A8000D0000000615D001CAE7A001C4A000000BE
:107A90004153530072665F70617463682E630042E5
:107AA0004C423130420042313642004242004242B2
:107AB00048484848006C635F70617463682E6300D7
:107AC0006C645F61636C5F70617463682E630073E4
:107AD00063685F6172625F70617463682E630073D4
:107AE00063685F70726F675F70617463682E6300B4
:107AF000423242373942006C6C645F706174636873
:107B00002E630000F15D001CAC7A001C41000000F7
:0400000500000000F7
:00000001FF
